{
  "_format": "hh-sol-artifact-1",
  "contractName": "DashVerification",
  "sourceName": "contracts/Verification.sol",
  "abi": [
    {
      "inputs": [],
      "stateMutability": "nonpayable",
      "type": "constructor"
    },
    {
      "anonymous": false,
      "inputs": [
        {
          "indexed": true,
          "internalType": "address",
          "name": "owner",
          "type": "address"
        },
        {
          "indexed": true,
          "internalType": "address",
          "name": "approved",
          "type": "address"
        },
        {
          "indexed": true,
          "internalType": "uint256",
          "name": "tokenId",
          "type": "uint256"
        }
      ],
      "name": "Approval",
      "type": "event"
    },
    {
      "anonymous": false,
      "inputs": [
        {
          "indexed": true,
          "internalType": "address",
          "name": "owner",
          "type": "address"
        },
        {
          "indexed": true,
          "internalType": "address",
          "name": "operator",
          "type": "address"
        },
        {
          "indexed": false,
          "internalType": "bool",
          "name": "approved",
          "type": "bool"
        }
      ],
      "name": "ApprovalForAll",
      "type": "event"
    },
    {
      "anonymous": false,
      "inputs": [
        {
          "indexed": false,
          "internalType": "uint256",
          "name": "_fromTokenId",
          "type": "uint256"
        },
        {
          "indexed": false,
          "internalType": "uint256",
          "name": "_toTokenId",
          "type": "uint256"
        }
      ],
      "name": "BatchMetadataUpdate",
      "type": "event"
    },
    {
      "anonymous": false,
      "inputs": [
        {
          "indexed": false,
          "internalType": "uint256",
          "name": "_tokenId",
          "type": "uint256"
        }
      ],
      "name": "MetadataUpdate",
      "type": "event"
    },
    {
      "anonymous": false,
      "inputs": [
        {
          "indexed": true,
          "internalType": "address",
          "name": "from",
          "type": "address"
        },
        {
          "indexed": true,
          "internalType": "address",
          "name": "to",
          "type": "address"
        },
        {
          "indexed": true,
          "internalType": "uint256",
          "name": "tokenId",
          "type": "uint256"
        }
      ],
      "name": "Transfer",
      "type": "event"
    },
    {
      "anonymous": false,
      "inputs": [
        {
          "indexed": true,
          "internalType": "uint256",
          "name": "tokenId",
          "type": "uint256"
        },
        {
          "indexed": true,
          "internalType": "address",
          "name": "user",
          "type": "address"
        },
        {
          "indexed": false,
          "internalType": "uint64",
          "name": "expires",
          "type": "uint64"
        }
      ],
      "name": "UpdateUser",
      "type": "event"
    },
    {
      "inputs": [
        {
          "internalType": "address",
          "name": "to",
          "type": "address"
        },
        {
          "internalType": "uint256",
          "name": "tokenId",
          "type": "uint256"
        }
      ],
      "name": "approve",
      "outputs": [],
      "stateMutability": "nonpayable",
      "type": "function"
    },
    {
      "inputs": [
        {
          "internalType": "address",
          "name": "owner",
          "type": "address"
        }
      ],
      "name": "balanceOf",
      "outputs": [
        {
          "internalType": "uint256",
          "name": "",
          "type": "uint256"
        }
      ],
      "stateMutability": "view",
      "type": "function"
    },
    {
      "inputs": [
        {
          "internalType": "uint256",
          "name": "tokenId",
          "type": "uint256"
        }
      ],
      "name": "burn",
      "outputs": [],
      "stateMutability": "nonpayable",
      "type": "function"
    },
    {
      "inputs": [
        {
          "internalType": "uint256",
          "name": "tokenId",
          "type": "uint256"
        }
      ],
      "name": "getApproved",
      "outputs": [
        {
          "internalType": "address",
          "name": "",
          "type": "address"
        }
      ],
      "stateMutability": "view",
      "type": "function"
    },
    {
      "inputs": [
        {
          "internalType": "address",
          "name": "owner",
          "type": "address"
        },
        {
          "internalType": "address",
          "name": "operator",
          "type": "address"
        }
      ],
      "name": "isApprovedForAll",
      "outputs": [
        {
          "internalType": "bool",
          "name": "",
          "type": "bool"
        }
      ],
      "stateMutability": "view",
      "type": "function"
    },
    {
      "inputs": [
        {
          "internalType": "string",
          "name": "_tokenURI",
          "type": "string"
        }
      ],
      "name": "mint",
      "outputs": [],
      "stateMutability": "nonpayable",
      "type": "function"
    },
    {
      "inputs": [],
      "name": "name",
      "outputs": [
        {
          "internalType": "string",
          "name": "",
          "type": "string"
        }
      ],
      "stateMutability": "view",
      "type": "function"
    },
    {
      "inputs": [
        {
          "internalType": "uint256",
          "name": "tokenId",
          "type": "uint256"
        }
      ],
      "name": "ownerOf",
      "outputs": [
        {
          "internalType": "address",
          "name": "",
          "type": "address"
        }
      ],
      "stateMutability": "view",
      "type": "function"
    },
    {
      "inputs": [
        {
          "internalType": "address",
          "name": "from",
          "type": "address"
        },
        {
          "internalType": "address",
          "name": "to",
          "type": "address"
        },
        {
          "internalType": "uint256",
          "name": "tokenId",
          "type": "uint256"
        }
      ],
      "name": "safeTransferFrom",
      "outputs": [],
      "stateMutability": "nonpayable",
      "type": "function"
    },
    {
      "inputs": [
        {
          "internalType": "address",
          "name": "from",
          "type": "address"
        },
        {
          "internalType": "address",
          "name": "to",
          "type": "address"
        },
        {
          "internalType": "uint256",
          "name": "tokenId",
          "type": "uint256"
        },
        {
          "internalType": "bytes",
          "name": "data",
          "type": "bytes"
        }
      ],
      "name": "safeTransferFrom",
      "outputs": [],
      "stateMutability": "nonpayable",
      "type": "function"
    },
    {
      "inputs": [
        {
          "internalType": "address",
          "name": "operator",
          "type": "address"
        },
        {
          "internalType": "bool",
          "name": "approved",
          "type": "bool"
        }
      ],
      "name": "setApprovalForAll",
      "outputs": [],
      "stateMutability": "nonpayable",
      "type": "function"
    },
    {
      "inputs": [
        {
          "internalType": "uint256",
          "name": "tokenId",
          "type": "uint256"
        },
        {
          "internalType": "address",
          "name": "user",
          "type": "address"
        },
        {
          "internalType": "uint64",
          "name": "expires",
          "type": "uint64"
        }
      ],
      "name": "setUser",
      "outputs": [],
      "stateMutability": "nonpayable",
      "type": "function"
    },
    {
      "inputs": [
        {
          "internalType": "bytes4",
          "name": "interfaceId",
          "type": "bytes4"
        }
      ],
      "name": "supportsInterface",
      "outputs": [
        {
          "internalType": "bool",
          "name": "",
          "type": "bool"
        }
      ],
      "stateMutability": "view",
      "type": "function"
    },
    {
      "inputs": [],
      "name": "symbol",
      "outputs": [
        {
          "internalType": "string",
          "name": "",
          "type": "string"
        }
      ],
      "stateMutability": "view",
      "type": "function"
    },
    {
      "inputs": [
        {
          "internalType": "uint256",
          "name": "tokenId",
          "type": "uint256"
        }
      ],
      "name": "tokenURI",
      "outputs": [
        {
          "internalType": "string",
          "name": "",
          "type": "string"
        }
      ],
      "stateMutability": "view",
      "type": "function"
    },
    {
      "inputs": [
        {
          "internalType": "address",
          "name": "from",
          "type": "address"
        },
        {
          "internalType": "address",
          "name": "to",
          "type": "address"
        },
        {
          "internalType": "uint256",
          "name": "tokenId",
          "type": "uint256"
        }
      ],
      "name": "transferFrom",
      "outputs": [],
      "stateMutability": "nonpayable",
      "type": "function"
    },
    {
      "inputs": [
        {
          "internalType": "uint256",
          "name": "tokenId",
          "type": "uint256"
        }
      ],
      "name": "userExpires",
      "outputs": [
        {
          "internalType": "uint256",
          "name": "",
          "type": "uint256"
        }
      ],
      "stateMutability": "view",
      "type": "function"
    },
    {
      "inputs": [
        {
          "internalType": "uint256",
          "name": "tokenId",
          "type": "uint256"
        }
      ],
      "name": "userOf",
      "outputs": [
        {
          "internalType": "address",
          "name": "",
          "type": "address"
        }
      ],
      "stateMutability": "view",
      "type": "function"
    }
  ],
  "bytecode": "0x60806040523480156200001157600080fd5b506040518060400160405280600f81526020017f44617368566572696669636174696f00000000000000000000000000000000008152506040518060400160405280600281526020017f44560000000000000000000000000000000000000000000000000000000000008152508181816000908162000091919062000328565b508060019081620000a3919062000328565b50505050506200040f565b600081519050919050565b7f4e487b7100000000000000000000000000000000000000000000000000000000600052604160045260246000fd5b7f4e487b7100000000000000000000000000000000000000000000000000000000600052602260045260246000fd5b600060028204905060018216806200013057607f821691505b602082108103620001465762000145620000e8565b5b50919050565b60008190508160005260206000209050919050565b60006020601f8301049050919050565b600082821b905092915050565b600060088302620001b07fffffffffffffffffffffffffffffffffffffffffffffffffffffffffffffffff8262000171565b620001bc868362000171565b95508019841693508086168417925050509392505050565b6000819050919050565b6000819050919050565b60006200020962000203620001fd84620001d4565b620001de565b620001d4565b9050919050565b6000819050919050565b6200022583620001e8565b6200023d620002348262000210565b8484546200017e565b825550505050565b600090565b6200025462000245565b620002618184846200021a565b505050565b5b8181101562000289576200027d6000826200024a565b60018101905062000267565b5050565b601f821115620002d857620002a2816200014c565b620002ad8462000161565b81016020851015620002bd578190505b620002d5620002cc8562000161565b83018262000266565b50505b505050565b600082821c905092915050565b6000620002fd60001984600802620002dd565b1980831691505092915050565b6000620003188383620002ea565b9150826002028217905092915050565b6200033382620000ae565b67ffffffffffffffff8111156200034f576200034e620000b9565b5b6200035b825462000117565b620003688282856200028d565b600060209050601f831160018114620003a057600084156200038b578287015190505b6200039785826200030a565b86555062000407565b601f198416620003b0866200014c565b60005b82811015620003da57848901518255600182019150602085019450602081019050620003b3565b86831015620003fa5784890151620003f6601f891682620002ea565b8355505b6001600288020188555050505b505050505050565b61335d806200041f6000396000f3fe608060405234801561001057600080fd5b50600436106101165760003560e01c80638fc88c48116100a2578063c2f1f14a11610071578063c2f1f14a146102ef578063c87b56dd1461031f578063d85d3d271461034f578063e030565e1461036b578063e985e9c51461038757610116565b80638fc88c481461026957806395d89b4114610299578063a22cb465146102b7578063b88d4fde146102d357610116565b806323b872dd116100e957806323b872dd146101b557806342842e0e146101d157806342966c68146101ed5780636352211e1461020957806370a082311461023957610116565b806301ffc9a71461011b57806306fdde031461014b578063081812fc14610169578063095ea7b314610199575b600080fd5b610135600480360381019061013091906120ba565b6103b7565b6040516101429190612102565b60405180910390f35b610153610431565b60405161016091906121ad565b60405180910390f35b610183600480360381019061017e9190612205565b6104c3565b6040516101909190612273565b60405180910390f35b6101b360048036038101906101ae91906122ba565b610509565b005b6101cf60048036038101906101ca91906122fa565b610620565b005b6101eb60048036038101906101e691906122fa565b610680565b005b61020760048036038101906102029190612205565b6106a0565b005b610223600480360381019061021e9190612205565b6106ac565b6040516102309190612273565b60405180910390f35b610253600480360381019061024e919061234d565b610732565b6040516102609190612389565b60405180910390f35b610283600480360381019061027e9190612205565b6107e9565b6040516102909190612389565b60405180910390f35b6102a1610827565b6040516102ae91906121ad565b60405180910390f35b6102d160048036038101906102cc91906123d0565b6108b9565b005b6102ed60048036038101906102e89190612545565b6108cf565b005b61030960048036038101906103049190612205565b610931565b6040516103169190612273565b60405180910390f35b61033960048036038101906103349190612205565b6109b6565b60405161034691906121ad565b60405180910390f35b61036960048036038101906103649190612669565b610ac8565b005b610385600480360381019061038091906126f2565b610af8565b005b6103a1600480360381019061039c9190612745565b610c1b565b6040516103ae9190612102565b60405180910390f35b60007fad092b5c000000000000000000000000000000000000000000000000000000007bffffffffffffffffffffffffffffffffffffffffffffffffffffffff1916827bffffffffffffffffffffffffffffffffffffffffffffffffffffffff1916148061042a575061042982610caf565b5b9050919050565b606060008054610440906127b4565b80601f016020809104026020016040519081016040528092919081815260200182805461046c906127b4565b80156104b95780601f1061048e576101008083540402835291602001916104b9565b820191906000526020600020905b81548152906001019060200180831161049c57829003601f168201915b5050505050905090565b60006104ce82610d10565b6004600083815260200190815260200160002060009054906101000a900473ffffffffffffffffffffffffffffffffffffffff169050919050565b6000610514826106ac565b90508073ffffffffffffffffffffffffffffffffffffffff168373ffffffffffffffffffffffffffffffffffffffff1603610584576040517f08c379a000000000000000000000000000000000000000000000000000000000815260040161057b90612857565b60405180910390fd5b8073ffffffffffffffffffffffffffffffffffffffff166105a3610d5b565b73ffffffffffffffffffffffffffffffffffffffff1614806105d257506105d1816105cc610d5b565b610c1b565b5b610611576040517f08c379a0000000000000000000000000000000000000000000000000000000008152600401610608906128e9565b60405180910390fd5b61061b8383610d63565b505050565b61063161062b610d5b565b82610e1c565b610670576040517f08c379a00000000000000000000000000000000000000000000000000000000081526004016106679061297b565b60405180910390fd5b61067b838383610eb1565b505050565b61069b838383604051806020016040528060008152506108cf565b505050565b6106a9816111aa565b50565b6000806106b8836111fd565b9050600073ffffffffffffffffffffffffffffffffffffffff168173ffffffffffffffffffffffffffffffffffffffff1603610729576040517f08c379a0000000000000000000000000000000000000000000000000000000008152600401610720906129e7565b60405180910390fd5b80915050919050565b60008073ffffffffffffffffffffffffffffffffffffffff168273ffffffffffffffffffffffffffffffffffffffff16036107a2576040517f08c379a000000000000000000000000000000000000000000000000000000000815260040161079990612a79565b60405180910390fd5b600360008373ffffffffffffffffffffffffffffffffffffffff1673ffffffffffffffffffffffffffffffffffffffff168152602001908152602001600020549050919050565b60006007600083815260200190815260200160002060000160149054906101000a900467ffffffffffffffff1667ffffffffffffffff169050919050565b606060018054610836906127b4565b80601f0160208091040260200160405190810160405280929190818152602001828054610862906127b4565b80156108af5780601f10610884576101008083540402835291602001916108af565b820191906000526020600020905b81548152906001019060200180831161089257829003601f168201915b5050505050905090565b6108cb6108c4610d5b565b838361123a565b5050565b6108e06108da610d5b565b83610e1c565b61091f576040517f08c379a00000000000000000000000000000000000000000000000000000000081526004016109169061297b565b60405180910390fd5b61092b848484846113a6565b50505050565b6000426007600084815260200190815260200160002060000160149054906101000a900467ffffffffffffffff1667ffffffffffffffff16106109ac576007600083815260200190815260200160002060000160009054906101000a900473ffffffffffffffffffffffffffffffffffffffff1690506109b1565b600090505b919050565b60606109c182610d10565b60006006600084815260200190815260200160002080546109e1906127b4565b80601f0160208091040260200160405190810160405280929190818152602001828054610a0d906127b4565b8015610a5a5780601f10610a2f57610100808354040283529160200191610a5a565b820191906000526020600020905b815481529060010190602001808311610a3d57829003601f168201915b505050505090506000610a6b611402565b90506000815103610a80578192505050610ac3565b600082511115610ab5578082604051602001610a9d929190612ad5565b60405160208183030381529060405292505050610ac3565b610abe84611419565b925050505b919050565b610ad26008611481565b6000610ade6008611497565b9050610aea33826114a5565b610af481836114c3565b5050565b610b023384610e1c565b610b41576040517f08c379a0000000000000000000000000000000000000000000000000000000008152600401610b3890612b6b565b60405180910390fd5b6000600760008581526020019081526020016000209050828160000160006101000a81548173ffffffffffffffffffffffffffffffffffffffff021916908373ffffffffffffffffffffffffffffffffffffffff160217905550818160000160146101000a81548167ffffffffffffffff021916908367ffffffffffffffff1602179055508273ffffffffffffffffffffffffffffffffffffffff16847f4e06b4e7000e659094299b3533b47b6aa8ad048e95e872d23d1f4ee55af89cfe84604051610c0d9190612b9a565b60405180910390a350505050565b6000600560008473ffffffffffffffffffffffffffffffffffffffff1673ffffffffffffffffffffffffffffffffffffffff16815260200190815260200160002060008373ffffffffffffffffffffffffffffffffffffffff1673ffffffffffffffffffffffffffffffffffffffff16815260200190815260200160002060009054906101000a900460ff16905092915050565b6000634906490660e01b7bffffffffffffffffffffffffffffffffffffffffffffffffffffffff1916827bffffffffffffffffffffffffffffffffffffffffffffffffffffffff19161480610d095750610d0882611567565b5b9050919050565b610d1981611649565b610d58576040517f08c379a0000000000000000000000000000000000000000000000000000000008152600401610d4f906129e7565b60405180910390fd5b50565b600033905090565b816004600083815260200190815260200160002060006101000a81548173ffffffffffffffffffffffffffffffffffffffff021916908373ffffffffffffffffffffffffffffffffffffffff160217905550808273ffffffffffffffffffffffffffffffffffffffff16610dd6836106ac565b73ffffffffffffffffffffffffffffffffffffffff167f8c5be1e5ebec7d5bd14f71427d1e84f3dd0314c0f7b2291e5b200ac8c7c3b92560405160405180910390a45050565b600080610e28836106ac565b90508073ffffffffffffffffffffffffffffffffffffffff168473ffffffffffffffffffffffffffffffffffffffff161480610e6a5750610e698185610c1b565b5b80610ea857508373ffffffffffffffffffffffffffffffffffffffff16610e90846104c3565b73ffffffffffffffffffffffffffffffffffffffff16145b91505092915050565b8273ffffffffffffffffffffffffffffffffffffffff16610ed1826106ac565b73ffffffffffffffffffffffffffffffffffffffff1614610f27576040517f08c379a0000000000000000000000000000000000000000000000000000000008152600401610f1e90612c27565b60405180910390fd5b600073ffffffffffffffffffffffffffffffffffffffff168273ffffffffffffffffffffffffffffffffffffffff1603610f96576040517f08c379a0000000000000000000000000000000000000000000000000000000008152600401610f8d90612cb9565b60405180910390fd5b610fa3838383600161168a565b8273ffffffffffffffffffffffffffffffffffffffff16610fc3826106ac565b73ffffffffffffffffffffffffffffffffffffffff1614611019576040517f08c379a000000000000000000000000000000000000000000000000000000000815260040161101090612c27565b60405180910390fd5b6004600082815260200190815260200160002060006101000a81549073ffffffffffffffffffffffffffffffffffffffff02191690556001600360008573ffffffffffffffffffffffffffffffffffffffff1673ffffffffffffffffffffffffffffffffffffffff168152602001908152602001600020600082825403925050819055506001600360008473ffffffffffffffffffffffffffffffffffffffff1673ffffffffffffffffffffffffffffffffffffffff16815260200190815260200160002060008282540192505081905550816002600083815260200190815260200160002060006101000a81548173ffffffffffffffffffffffffffffffffffffffff021916908373ffffffffffffffffffffffffffffffffffffffff160217905550808273ffffffffffffffffffffffffffffffffffffffff168473ffffffffffffffffffffffffffffffffffffffff167fddf252ad1be2c89b69c2b068fc378daa952ba7f163c4a11628f55a4df523b3ef60405160405180910390a46111a583838360016117ea565b505050565b6111b3816117f0565b60006006600083815260200190815260200160002080546111d3906127b4565b9050146111fa576006600082815260200190815260200160002060006111f99190611ff1565b5b50565b60006002600083815260200190815260200160002060009054906101000a900473ffffffffffffffffffffffffffffffffffffffff169050919050565b8173ffffffffffffffffffffffffffffffffffffffff168373ffffffffffffffffffffffffffffffffffffffff16036112a8576040517f08c379a000000000000000000000000000000000000000000000000000000000815260040161129f90612d25565b60405180910390fd5b80600560008573ffffffffffffffffffffffffffffffffffffffff1673ffffffffffffffffffffffffffffffffffffffff16815260200190815260200160002060008473ffffffffffffffffffffffffffffffffffffffff1673ffffffffffffffffffffffffffffffffffffffff16815260200190815260200160002060006101000a81548160ff0219169083151502179055508173ffffffffffffffffffffffffffffffffffffffff168373ffffffffffffffffffffffffffffffffffffffff167f17307eab39ab6107e8899845ad3d59bd9653f200f220920489ca2b5937696c31836040516113999190612102565b60405180910390a3505050565b6113b1848484610eb1565b6113bd8484848461193e565b6113fc576040517f08c379a00000000000000000000000000000000000000000000000000000000081526004016113f390612db7565b60405180910390fd5b50505050565b606060405180602001604052806000815250905090565b606061142482610d10565b600061142e611402565b9050600081511161144e5760405180602001604052806000815250611479565b8061145884611ac5565b604051602001611469929190612ad5565b6040516020818303038152906040525b915050919050565b6001816000016000828254019250508190555050565b600081600001549050919050565b6114bf828260405180602001604052806000815250611b93565b5050565b6114cc82611649565b61150b576040517f08c379a000000000000000000000000000000000000000000000000000000000815260040161150290612e49565b60405180910390fd5b8060066000848152602001908152602001600020908161152b9190613015565b507ff8e1a15aba9398e019f0b49df1a4fde98ee17ae345cb5f6b5e2c27f5033e8ce78260405161155b9190612389565b60405180910390a15050565b60007f80ac58cd000000000000000000000000000000000000000000000000000000007bffffffffffffffffffffffffffffffffffffffffffffffffffffffff1916827bffffffffffffffffffffffffffffffffffffffffffffffffffffffff1916148061163257507f5b5e139f000000000000000000000000000000000000000000000000000000007bffffffffffffffffffffffffffffffffffffffffffffffffffffffff1916827bffffffffffffffffffffffffffffffffffffffffffffffffffffffff1916145b80611642575061164182611bee565b5b9050919050565b60008073ffffffffffffffffffffffffffffffffffffffff1661166b836111fd565b73ffffffffffffffffffffffffffffffffffffffff1614159050919050565b61169684848484611c58565b8273ffffffffffffffffffffffffffffffffffffffff168473ffffffffffffffffffffffffffffffffffffffff16141580156117355750600073ffffffffffffffffffffffffffffffffffffffff166007600084815260200190815260200160002060000160009054906101000a900473ffffffffffffffffffffffffffffffffffffffff1673ffffffffffffffffffffffffffffffffffffffff1614155b156117e45760076000838152602001908152602001600020600080820160006101000a81549073ffffffffffffffffffffffffffffffffffffffff02191690556000820160146101000a81549067ffffffffffffffff02191690555050600073ffffffffffffffffffffffffffffffffffffffff16827f4e06b4e7000e659094299b3533b47b6aa8ad048e95e872d23d1f4ee55af89cfe60006040516117db9190613122565b60405180910390a35b50505050565b50505050565b60006117fb826106ac565b905061180b81600084600161168a565b611814826106ac565b90506004600083815260200190815260200160002060006101000a81549073ffffffffffffffffffffffffffffffffffffffff02191690556001600360008373ffffffffffffffffffffffffffffffffffffffff1673ffffffffffffffffffffffffffffffffffffffff168152602001908152602001600020600082825403925050819055506002600083815260200190815260200160002060006101000a81549073ffffffffffffffffffffffffffffffffffffffff021916905581600073ffffffffffffffffffffffffffffffffffffffff168273ffffffffffffffffffffffffffffffffffffffff167fddf252ad1be2c89b69c2b068fc378daa952ba7f163c4a11628f55a4df523b3ef60405160405180910390a461193a8160008460016117ea565b5050565b600061195f8473ffffffffffffffffffffffffffffffffffffffff16611c5e565b15611ab8578373ffffffffffffffffffffffffffffffffffffffff1663150b7a02611988610d5b565b8786866040518563ffffffff1660e01b81526004016119aa9493929190613192565b6020604051808303816000875af19250505080156119e657506040513d601f19601f820116820180604052508101906119e391906131f3565b60015b611a68573d8060008114611a16576040519150601f19603f3d011682016040523d82523d6000602084013e611a1b565b606091505b506000815103611a60576040517f08c379a0000000000000000000000000000000000000000000000000000000008152600401611a5790612db7565b60405180910390fd5b805181602001fd5b63150b7a0260e01b7bffffffffffffffffffffffffffffffffffffffffffffffffffffffff1916817bffffffffffffffffffffffffffffffffffffffffffffffffffffffff191614915050611abd565b600190505b949350505050565b606060006001611ad484611c81565b01905060008167ffffffffffffffff811115611af357611af261241a565b5b6040519080825280601f01601f191660200182016040528015611b255781602001600182028036833780820191505090505b509050600082602001820190505b600115611b88578080600190039150507f3031323334353637383961626364656600000000000000000000000000000000600a86061a8153600a8581611b7c57611b7b613220565b5b04945060008503611b33575b819350505050919050565b611b9d8383611dd4565b611baa600084848461193e565b611be9576040517f08c379a0000000000000000000000000000000000000000000000000000000008152600401611be090612db7565b60405180910390fd5b505050565b60007f01ffc9a7000000000000000000000000000000000000000000000000000000007bffffffffffffffffffffffffffffffffffffffffffffffffffffffff1916827bffffffffffffffffffffffffffffffffffffffffffffffffffffffff1916149050919050565b50505050565b6000808273ffffffffffffffffffffffffffffffffffffffff163b119050919050565b600080600090507a184f03e93ff9f4daa797ed6e38ed64bf6a1f0100000000000000008310611cdf577a184f03e93ff9f4daa797ed6e38ed64bf6a1f0100000000000000008381611cd557611cd4613220565b5b0492506040810190505b6d04ee2d6d415b85acef81000000008310611d1c576d04ee2d6d415b85acef81000000008381611d1257611d11613220565b5b0492506020810190505b662386f26fc100008310611d4b57662386f26fc100008381611d4157611d40613220565b5b0492506010810190505b6305f5e1008310611d74576305f5e1008381611d6a57611d69613220565b5b0492506008810190505b6127108310611d99576127108381611d8f57611d8e613220565b5b0492506004810190505b60648310611dbc5760648381611db257611db1613220565b5b0492506002810190505b600a8310611dcb576001810190505b80915050919050565b600073ffffffffffffffffffffffffffffffffffffffff168273ffffffffffffffffffffffffffffffffffffffff1603611e43576040517f08c379a0000000000000000000000000000000000000000000000000000000008152600401611e3a9061329b565b60405180910390fd5b611e4c81611649565b15611e8c576040517f08c379a0000000000000000000000000000000000000000000000000000000008152600401611e8390613307565b60405180910390fd5b611e9a60008383600161168a565b611ea381611649565b15611ee3576040517f08c379a0000000000000000000000000000000000000000000000000000000008152600401611eda90613307565b60405180910390fd5b6001600360008473ffffffffffffffffffffffffffffffffffffffff1673ffffffffffffffffffffffffffffffffffffffff16815260200190815260200160002060008282540192505081905550816002600083815260200190815260200160002060006101000a81548173ffffffffffffffffffffffffffffffffffffffff021916908373ffffffffffffffffffffffffffffffffffffffff160217905550808273ffffffffffffffffffffffffffffffffffffffff16600073ffffffffffffffffffffffffffffffffffffffff167fddf252ad1be2c89b69c2b068fc378daa952ba7f163c4a11628f55a4df523b3ef60405160405180910390a4611fed6000838360016117ea565b5050565b508054611ffd906127b4565b6000825580601f1061200f575061202e565b601f01602090049060005260206000209081019061202d9190612031565b5b50565b5b8082111561204a576000816000905550600101612032565b5090565b6000604051905090565b600080fd5b600080fd5b60007fffffffff0000000000000000000000000000000000000000000000000000000082169050919050565b61209781612062565b81146120a257600080fd5b50565b6000813590506120b48161208e565b92915050565b6000602082840312156120d0576120cf612058565b5b60006120de848285016120a5565b91505092915050565b60008115159050919050565b6120fc816120e7565b82525050565b600060208201905061211760008301846120f3565b92915050565b600081519050919050565b600082825260208201905092915050565b60005b8381101561215757808201518184015260208101905061213c565b60008484015250505050565b6000601f19601f8301169050919050565b600061217f8261211d565b6121898185612128565b9350612199818560208601612139565b6121a281612163565b840191505092915050565b600060208201905081810360008301526121c78184612174565b905092915050565b6000819050919050565b6121e2816121cf565b81146121ed57600080fd5b50565b6000813590506121ff816121d9565b92915050565b60006020828403121561221b5761221a612058565b5b6000612229848285016121f0565b91505092915050565b600073ffffffffffffffffffffffffffffffffffffffff82169050919050565b600061225d82612232565b9050919050565b61226d81612252565b82525050565b60006020820190506122886000830184612264565b92915050565b61229781612252565b81146122a257600080fd5b50565b6000813590506122b48161228e565b92915050565b600080604083850312156122d1576122d0612058565b5b60006122df858286016122a5565b92505060206122f0858286016121f0565b9150509250929050565b60008060006060848603121561231357612312612058565b5b6000612321868287016122a5565b9350506020612332868287016122a5565b9250506040612343868287016121f0565b9150509250925092565b60006020828403121561236357612362612058565b5b6000612371848285016122a5565b91505092915050565b612383816121cf565b82525050565b600060208201905061239e600083018461237a565b92915050565b6123ad816120e7565b81146123b857600080fd5b50565b6000813590506123ca816123a4565b92915050565b600080604083850312156123e7576123e6612058565b5b60006123f5858286016122a5565b9250506020612406858286016123bb565b9150509250929050565b600080fd5b600080fd5b7f4e487b7100000000000000000000000000000000000000000000000000000000600052604160045260246000fd5b61245282612163565b810181811067ffffffffffffffff821117156124715761247061241a565b5b80604052505050565b600061248461204e565b90506124908282612449565b919050565b600067ffffffffffffffff8211156124b0576124af61241a565b5b6124b982612163565b9050602081019050919050565b82818337600083830152505050565b60006124e86124e384612495565b61247a565b90508281526020810184848401111561250457612503612415565b5b61250f8482856124c6565b509392505050565b600082601f83011261252c5761252b612410565b5b813561253c8482602086016124d5565b91505092915050565b6000806000806080858703121561255f5761255e612058565b5b600061256d878288016122a5565b945050602061257e878288016122a5565b935050604061258f878288016121f0565b925050606085013567ffffffffffffffff8111156125b0576125af61205d565b5b6125bc87828801612517565b91505092959194509250565b600067ffffffffffffffff8211156125e3576125e261241a565b5b6125ec82612163565b9050602081019050919050565b600061260c612607846125c8565b61247a565b90508281526020810184848401111561262857612627612415565b5b6126338482856124c6565b509392505050565b600082601f8301126126505761264f612410565b5b81356126608482602086016125f9565b91505092915050565b60006020828403121561267f5761267e612058565b5b600082013567ffffffffffffffff81111561269d5761269c61205d565b5b6126a98482850161263b565b91505092915050565b600067ffffffffffffffff82169050919050565b6126cf816126b2565b81146126da57600080fd5b50565b6000813590506126ec816126c6565b92915050565b60008060006060848603121561270b5761270a612058565b5b6000612719868287016121f0565b935050602061272a868287016122a5565b925050604061273b868287016126dd565b9150509250925092565b6000806040838503121561275c5761275b612058565b5b600061276a858286016122a5565b925050602061277b858286016122a5565b9150509250929050565b7f4e487b7100000000000000000000000000000000000000000000000000000000600052602260045260246000fd5b600060028204905060018216806127cc57607f821691505b6020821081036127df576127de612785565b5b50919050565b7f4552433732313a20617070726f76616c20746f2063757272656e74206f776e6560008201527f7200000000000000000000000000000000000000000000000000000000000000602082015250565b6000612841602183612128565b915061284c826127e5565b604082019050919050565b6000602082019050818103600083015261287081612834565b9050919050565b7f4552433732313a20617070726f76652063616c6c6572206973206e6f7420746f60008201527f6b656e206f776e6572206f7220617070726f76656420666f7220616c6c000000602082015250565b60006128d3603d83612128565b91506128de82612877565b604082019050919050565b60006020820190508181036000830152612902816128c6565b9050919050565b7f4552433732313a2063616c6c6572206973206e6f7420746f6b656e206f776e6560008201527f72206f7220617070726f76656400000000000000000000000000000000000000602082015250565b6000612965602d83612128565b915061297082612909565b604082019050919050565b6000602082019050818103600083015261299481612958565b9050919050565b7f4552433732313a20696e76616c696420746f6b656e2049440000000000000000600082015250565b60006129d1601883612128565b91506129dc8261299b565b602082019050919050565b60006020820190508181036000830152612a00816129c4565b9050919050565b7f4552433732313a2061646472657373207a65726f206973206e6f74206120766160008201527f6c6964206f776e65720000000000000000000000000000000000000000000000602082015250565b6000612a63602983612128565b9150612a6e82612a07565b604082019050919050565b60006020820190508181036000830152612a9281612a56565b9050919050565b600081905092915050565b6000612aaf8261211d565b612ab98185612a99565b9350612ac9818560208601612139565b80840191505092915050565b6000612ae18285612aa4565b9150612aed8284612aa4565b91508190509392505050565b7f4552433732313a207472616e736665722063616c6c6572206973206e6f74206f60008201527f776e6572206e6f7220617070726f766564000000000000000000000000000000602082015250565b6000612b55603183612128565b9150612b6082612af9565b604082019050919050565b60006020820190508181036000830152612b8481612b48565b9050919050565b612b94816126b2565b82525050565b6000602082019050612baf6000830184612b8b565b92915050565b7f4552433732313a207472616e736665722066726f6d20696e636f72726563742060008201527f6f776e6572000000000000000000000000000000000000000000000000000000602082015250565b6000612c11602583612128565b9150612c1c82612bb5565b604082019050919050565b60006020820190508181036000830152612c4081612c04565b9050919050565b7f4552433732313a207472616e7366657220746f20746865207a65726f2061646460008201527f7265737300000000000000000000000000000000000000000000000000000000602082015250565b6000612ca3602483612128565b9150612cae82612c47565b604082019050919050565b60006020820190508181036000830152612cd281612c96565b9050919050565b7f4552433732313a20617070726f766520746f2063616c6c657200000000000000600082015250565b6000612d0f601983612128565b9150612d1a82612cd9565b602082019050919050565b60006020820190508181036000830152612d3e81612d02565b9050919050565b7f4552433732313a207472616e7366657220746f206e6f6e20455243373231526560008201527f63656976657220696d706c656d656e7465720000000000000000000000000000602082015250565b6000612da1603283612128565b9150612dac82612d45565b604082019050919050565b60006020820190508181036000830152612dd081612d94565b9050919050565b7f45524337323155524953746f726167653a2055524920736574206f66206e6f6e60008201527f6578697374656e7420746f6b656e000000000000000000000000000000000000602082015250565b6000612e33602e83612128565b9150612e3e82612dd7565b604082019050919050565b60006020820190508181036000830152612e6281612e26565b9050919050565b60008190508160005260206000209050919050565b60006020601f8301049050919050565b600082821b905092915050565b600060088302612ecb7fffffffffffffffffffffffffffffffffffffffffffffffffffffffffffffffff82612e8e565b612ed58683612e8e565b95508019841693508086168417925050509392505050565b6000819050919050565b6000612f12612f0d612f08846121cf565b612eed565b6121cf565b9050919050565b6000819050919050565b612f2c83612ef7565b612f40612f3882612f19565b848454612e9b565b825550505050565b600090565b612f55612f48565b612f60818484612f23565b505050565b5b81811015612f8457612f79600082612f4d565b600181019050612f66565b5050565b601f821115612fc957612f9a81612e69565b612fa384612e7e565b81016020851015612fb2578190505b612fc6612fbe85612e7e565b830182612f65565b50505b505050565b600082821c905092915050565b6000612fec60001984600802612fce565b1980831691505092915050565b60006130058383612fdb565b9150826002028217905092915050565b61301e8261211d565b67ffffffffffffffff8111156130375761303661241a565b5b61304182546127b4565b61304c828285612f88565b600060209050601f83116001811461307f576000841561306d578287015190505b6130778582612ff9565b8655506130df565b601f19841661308d86612e69565b60005b828110156130b557848901518255600182019150602085019450602081019050613090565b868310156130d257848901516130ce601f891682612fdb565b8355505b6001600288020188555050505b505050505050565b6000819050919050565b600061310c613107613102846130e7565b612eed565b6126b2565b9050919050565b61311c816130f1565b82525050565b60006020820190506131376000830184613113565b92915050565b600081519050919050565b600082825260208201905092915050565b60006131648261313d565b61316e8185613148565b935061317e818560208601612139565b61318781612163565b840191505092915050565b60006080820190506131a76000830187612264565b6131b46020830186612264565b6131c1604083018561237a565b81810360608301526131d38184613159565b905095945050505050565b6000815190506131ed8161208e565b92915050565b60006020828403121561320957613208612058565b5b6000613217848285016131de565b91505092915050565b7f4e487b7100000000000000000000000000000000000000000000000000000000600052601260045260246000fd5b7f4552433732313a206d696e7420746f20746865207a65726f2061646472657373600082015250565b6000613285602083612128565b91506132908261324f565b602082019050919050565b600060208201905081810360008301526132b481613278565b9050919050565b7f4552433732313a20746f6b656e20616c7265616479206d696e74656400000000600082015250565b60006132f1601c83612128565b91506132fc826132bb565b602082019050919050565b60006020820190508181036000830152613320816132e4565b905091905056fea264697066735822122053bac200ac94cfa955b9a4c5571c4ba84b1d8fcb855cd8bb77198180f89cd12164736f6c63430008130033",
  "linkReferences": {},
  "deployedLinkReferences": {}
}