{
  "_format": "hh-sol-artifact-1",
  "contractName": "ERC4907",
  "sourceName": "contracts/ERC4907.sol",
  "abi": [
    {
      "inputs": [
        {
          "internalType": "string",
          "name": "_name",
          "type": "string"
        },
        {
          "internalType": "string",
          "name": "_symbol",
          "type": "string"
        }
      ],
      "stateMutability": "nonpayable",
      "type": "constructor"
    },
    {
      "anonymous": false,
      "inputs": [
        {
          "indexed": true,
          "internalType": "address",
          "name": "owner",
          "type": "address"
        },
        {
          "indexed": true,
          "internalType": "address",
          "name": "approved",
          "type": "address"
        },
        {
          "indexed": true,
          "internalType": "uint256",
          "name": "tokenId",
          "type": "uint256"
        }
      ],
      "name": "Approval",
      "type": "event"
    },
    {
      "anonymous": false,
      "inputs": [
        {
          "indexed": true,
          "internalType": "address",
          "name": "owner",
          "type": "address"
        },
        {
          "indexed": true,
          "internalType": "address",
          "name": "operator",
          "type": "address"
        },
        {
          "indexed": false,
          "internalType": "bool",
          "name": "approved",
          "type": "bool"
        }
      ],
      "name": "ApprovalForAll",
      "type": "event"
    },
    {
      "anonymous": false,
      "inputs": [
        {
          "indexed": false,
          "internalType": "uint256",
          "name": "_fromTokenId",
          "type": "uint256"
        },
        {
          "indexed": false,
          "internalType": "uint256",
          "name": "_toTokenId",
          "type": "uint256"
        }
      ],
      "name": "BatchMetadataUpdate",
      "type": "event"
    },
    {
      "anonymous": false,
      "inputs": [
        {
          "indexed": false,
          "internalType": "uint256",
          "name": "_tokenId",
          "type": "uint256"
        }
      ],
      "name": "MetadataUpdate",
      "type": "event"
    },
    {
      "anonymous": false,
      "inputs": [
        {
          "indexed": true,
          "internalType": "address",
          "name": "from",
          "type": "address"
        },
        {
          "indexed": true,
          "internalType": "address",
          "name": "to",
          "type": "address"
        },
        {
          "indexed": true,
          "internalType": "uint256",
          "name": "tokenId",
          "type": "uint256"
        }
      ],
      "name": "Transfer",
      "type": "event"
    },
    {
      "anonymous": false,
      "inputs": [
        {
          "indexed": true,
          "internalType": "uint256",
          "name": "tokenId",
          "type": "uint256"
        },
        {
          "indexed": true,
          "internalType": "address",
          "name": "user",
          "type": "address"
        },
        {
          "indexed": false,
          "internalType": "uint64",
          "name": "expires",
          "type": "uint64"
        }
      ],
      "name": "UpdateUser",
      "type": "event"
    },
    {
      "inputs": [
        {
          "internalType": "address",
          "name": "to",
          "type": "address"
        },
        {
          "internalType": "uint256",
          "name": "tokenId",
          "type": "uint256"
        }
      ],
      "name": "approve",
      "outputs": [],
      "stateMutability": "nonpayable",
      "type": "function"
    },
    {
      "inputs": [
        {
          "internalType": "address",
          "name": "owner",
          "type": "address"
        }
      ],
      "name": "balanceOf",
      "outputs": [
        {
          "internalType": "uint256",
          "name": "",
          "type": "uint256"
        }
      ],
      "stateMutability": "view",
      "type": "function"
    },
    {
      "inputs": [
        {
          "internalType": "uint256",
          "name": "tokenId",
          "type": "uint256"
        }
      ],
      "name": "getApproved",
      "outputs": [
        {
          "internalType": "address",
          "name": "",
          "type": "address"
        }
      ],
      "stateMutability": "view",
      "type": "function"
    },
    {
      "inputs": [
        {
          "internalType": "address",
          "name": "owner",
          "type": "address"
        },
        {
          "internalType": "address",
          "name": "operator",
          "type": "address"
        }
      ],
      "name": "isApprovedForAll",
      "outputs": [
        {
          "internalType": "bool",
          "name": "",
          "type": "bool"
        }
      ],
      "stateMutability": "view",
      "type": "function"
    },
    {
      "inputs": [],
      "name": "name",
      "outputs": [
        {
          "internalType": "string",
          "name": "",
          "type": "string"
        }
      ],
      "stateMutability": "view",
      "type": "function"
    },
    {
      "inputs": [
        {
          "internalType": "uint256",
          "name": "tokenId",
          "type": "uint256"
        }
      ],
      "name": "ownerOf",
      "outputs": [
        {
          "internalType": "address",
          "name": "",
          "type": "address"
        }
      ],
      "stateMutability": "view",
      "type": "function"
    },
    {
      "inputs": [
        {
          "internalType": "address",
          "name": "from",
          "type": "address"
        },
        {
          "internalType": "address",
          "name": "to",
          "type": "address"
        },
        {
          "internalType": "uint256",
          "name": "tokenId",
          "type": "uint256"
        }
      ],
      "name": "safeTransferFrom",
      "outputs": [],
      "stateMutability": "nonpayable",
      "type": "function"
    },
    {
      "inputs": [
        {
          "internalType": "address",
          "name": "from",
          "type": "address"
        },
        {
          "internalType": "address",
          "name": "to",
          "type": "address"
        },
        {
          "internalType": "uint256",
          "name": "tokenId",
          "type": "uint256"
        },
        {
          "internalType": "bytes",
          "name": "data",
          "type": "bytes"
        }
      ],
      "name": "safeTransferFrom",
      "outputs": [],
      "stateMutability": "nonpayable",
      "type": "function"
    },
    {
      "inputs": [
        {
          "internalType": "address",
          "name": "operator",
          "type": "address"
        },
        {
          "internalType": "bool",
          "name": "approved",
          "type": "bool"
        }
      ],
      "name": "setApprovalForAll",
      "outputs": [],
      "stateMutability": "nonpayable",
      "type": "function"
    },
    {
      "inputs": [
        {
          "internalType": "uint256",
          "name": "tokenId",
          "type": "uint256"
        },
        {
          "internalType": "address",
          "name": "user",
          "type": "address"
        },
        {
          "internalType": "uint64",
          "name": "expires",
          "type": "uint64"
        }
      ],
      "name": "setUser",
      "outputs": [],
      "stateMutability": "nonpayable",
      "type": "function"
    },
    {
      "inputs": [
        {
          "internalType": "bytes4",
          "name": "interfaceId",
          "type": "bytes4"
        }
      ],
      "name": "supportsInterface",
      "outputs": [
        {
          "internalType": "bool",
          "name": "",
          "type": "bool"
        }
      ],
      "stateMutability": "view",
      "type": "function"
    },
    {
      "inputs": [],
      "name": "symbol",
      "outputs": [
        {
          "internalType": "string",
          "name": "",
          "type": "string"
        }
      ],
      "stateMutability": "view",
      "type": "function"
    },
    {
      "inputs": [
        {
          "internalType": "uint256",
          "name": "tokenId",
          "type": "uint256"
        }
      ],
      "name": "tokenURI",
      "outputs": [
        {
          "internalType": "string",
          "name": "",
          "type": "string"
        }
      ],
      "stateMutability": "view",
      "type": "function"
    },
    {
      "inputs": [
        {
          "internalType": "address",
          "name": "from",
          "type": "address"
        },
        {
          "internalType": "address",
          "name": "to",
          "type": "address"
        },
        {
          "internalType": "uint256",
          "name": "tokenId",
          "type": "uint256"
        }
      ],
      "name": "transferFrom",
      "outputs": [],
      "stateMutability": "nonpayable",
      "type": "function"
    },
    {
      "inputs": [
        {
          "internalType": "uint256",
          "name": "tokenId",
          "type": "uint256"
        }
      ],
      "name": "userExpires",
      "outputs": [
        {
          "internalType": "uint256",
          "name": "",
          "type": "uint256"
        }
      ],
      "stateMutability": "view",
      "type": "function"
    },
    {
      "inputs": [
        {
          "internalType": "uint256",
          "name": "tokenId",
          "type": "uint256"
        }
      ],
      "name": "userOf",
      "outputs": [
        {
          "internalType": "address",
          "name": "",
          "type": "address"
        }
      ],
      "stateMutability": "view",
      "type": "function"
    }
  ],
  "bytecode": "0x60806040523480156200001157600080fd5b5060405162002e7038038062002e708339818101604052810190620000379190620001fa565b818181600090816200004a9190620004ca565b5080600190816200005c9190620004ca565b5050505050620005b1565b6000604051905090565b600080fd5b600080fd5b600080fd5b600080fd5b6000601f19601f8301169050919050565b7f4e487b7100000000000000000000000000000000000000000000000000000000600052604160045260246000fd5b620000d08262000085565b810181811067ffffffffffffffff82111715620000f257620000f162000096565b5b80604052505050565b60006200010762000067565b9050620001158282620000c5565b919050565b600067ffffffffffffffff82111562000138576200013762000096565b5b620001438262000085565b9050602081019050919050565b60005b838110156200017057808201518184015260208101905062000153565b60008484015250505050565b6000620001936200018d846200011a565b620000fb565b905082815260208101848484011115620001b257620001b162000080565b5b620001bf84828562000150565b509392505050565b600082601f830112620001df57620001de6200007b565b5b8151620001f18482602086016200017c565b91505092915050565b6000806040838503121562000214576200021362000071565b5b600083015167ffffffffffffffff81111562000235576200023462000076565b5b6200024385828601620001c7565b925050602083015167ffffffffffffffff81111562000267576200026662000076565b5b6200027585828601620001c7565b9150509250929050565b600081519050919050565b7f4e487b7100000000000000000000000000000000000000000000000000000000600052602260045260246000fd5b60006002820490506001821680620002d257607f821691505b602082108103620002e857620002e76200028a565b5b50919050565b60008190508160005260206000209050919050565b60006020601f8301049050919050565b600082821b905092915050565b600060088302620003527fffffffffffffffffffffffffffffffffffffffffffffffffffffffffffffffff8262000313565b6200035e868362000313565b95508019841693508086168417925050509392505050565b6000819050919050565b6000819050919050565b6000620003ab620003a56200039f8462000376565b62000380565b62000376565b9050919050565b6000819050919050565b620003c7836200038a565b620003df620003d682620003b2565b84845462000320565b825550505050565b600090565b620003f6620003e7565b62000403818484620003bc565b505050565b5b818110156200042b576200041f600082620003ec565b60018101905062000409565b5050565b601f8211156200047a576200044481620002ee565b6200044f8462000303565b810160208510156200045f578190505b620004776200046e8562000303565b83018262000408565b50505b505050565b600082821c905092915050565b60006200049f600019846008026200047f565b1980831691505092915050565b6000620004ba83836200048c565b9150826002028217905092915050565b620004d5826200027f565b67ffffffffffffffff811115620004f157620004f062000096565b5b620004fd8254620002b9565b6200050a8282856200042f565b600060209050601f8311600181146200054257600084156200052d578287015190505b620005398582620004ac565b865550620005a9565b601f1984166200055286620002ee565b60005b828110156200057c5784890151825560018201915060208501945060208101905062000555565b868310156200059c578489015162000598601f8916826200048c565b8355505b6001600288020188555050505b505050505050565b6128af80620005c16000396000f3fe608060405234801561001057600080fd5b50600436106101005760003560e01c80638fc88c4811610097578063c2f1f14a11610066578063c2f1f14a146102bd578063c87b56dd146102ed578063e030565e1461031d578063e985e9c51461033957610100565b80638fc88c481461023757806395d89b4114610267578063a22cb46514610285578063b88d4fde146102a157610100565b806323b872dd116100d357806323b872dd1461019f57806342842e0e146101bb5780636352211e146101d757806370a082311461020757610100565b806301ffc9a71461010557806306fdde0314610135578063081812fc14610153578063095ea7b314610183575b600080fd5b61011f600480360381019061011a9190611ad4565b610369565b60405161012c9190611b1c565b60405180910390f35b61013d6103e3565b60405161014a9190611bc7565b60405180910390f35b61016d60048036038101906101689190611c1f565b610475565b60405161017a9190611c8d565b60405180910390f35b61019d60048036038101906101989190611cd4565b6104bb565b005b6101b960048036038101906101b49190611d14565b6105d2565b005b6101d560048036038101906101d09190611d14565b610632565b005b6101f160048036038101906101ec9190611c1f565b610652565b6040516101fe9190611c8d565b60405180910390f35b610221600480360381019061021c9190611d67565b6106d8565b60405161022e9190611da3565b60405180910390f35b610251600480360381019061024c9190611c1f565b61078f565b60405161025e9190611da3565b60405180910390f35b61026f6107cd565b60405161027c9190611bc7565b60405180910390f35b61029f600480360381019061029a9190611dea565b61085f565b005b6102bb60048036038101906102b69190611f5f565b610875565b005b6102d760048036038101906102d29190611c1f565b6108d7565b6040516102e49190611c8d565b60405180910390f35b61030760048036038101906103029190611c1f565b61095c565b6040516103149190611bc7565b60405180910390f35b61033760048036038101906103329190612022565b610a6e565b005b610353600480360381019061034e9190612075565b610b91565b6040516103609190611b1c565b60405180910390f35b60007fad092b5c000000000000000000000000000000000000000000000000000000007bffffffffffffffffffffffffffffffffffffffffffffffffffffffff1916827bffffffffffffffffffffffffffffffffffffffffffffffffffffffff191614806103dc57506103db82610c25565b5b9050919050565b6060600080546103f2906120e4565b80601f016020809104026020016040519081016040528092919081815260200182805461041e906120e4565b801561046b5780601f106104405761010080835404028352916020019161046b565b820191906000526020600020905b81548152906001019060200180831161044e57829003601f168201915b5050505050905090565b600061048082610c86565b6004600083815260200190815260200160002060009054906101000a900473ffffffffffffffffffffffffffffffffffffffff169050919050565b60006104c682610652565b90508073ffffffffffffffffffffffffffffffffffffffff168373ffffffffffffffffffffffffffffffffffffffff1603610536576040517f08c379a000000000000000000000000000000000000000000000000000000000815260040161052d90612187565b60405180910390fd5b8073ffffffffffffffffffffffffffffffffffffffff16610555610cd1565b73ffffffffffffffffffffffffffffffffffffffff16148061058457506105838161057e610cd1565b610b91565b5b6105c3576040517f08c379a00000000000000000000000000000000000000000000000000000000081526004016105ba90612219565b60405180910390fd5b6105cd8383610cd9565b505050565b6105e36105dd610cd1565b82610d92565b610622576040517f08c379a0000000000000000000000000000000000000000000000000000000008152600401610619906122ab565b60405180910390fd5b61062d838383610e27565b505050565b61064d83838360405180602001604052806000815250610875565b505050565b60008061065e83611120565b9050600073ffffffffffffffffffffffffffffffffffffffff168173ffffffffffffffffffffffffffffffffffffffff16036106cf576040517f08c379a00000000000000000000000000000000000000000000000000000000081526004016106c690612317565b60405180910390fd5b80915050919050565b60008073ffffffffffffffffffffffffffffffffffffffff168273ffffffffffffffffffffffffffffffffffffffff1603610748576040517f08c379a000000000000000000000000000000000000000000000000000000000815260040161073f906123a9565b60405180910390fd5b600360008373ffffffffffffffffffffffffffffffffffffffff1673ffffffffffffffffffffffffffffffffffffffff168152602001908152602001600020549050919050565b60006007600083815260200190815260200160002060000160149054906101000a900467ffffffffffffffff1667ffffffffffffffff169050919050565b6060600180546107dc906120e4565b80601f0160208091040260200160405190810160405280929190818152602001828054610808906120e4565b80156108555780601f1061082a57610100808354040283529160200191610855565b820191906000526020600020905b81548152906001019060200180831161083857829003601f168201915b5050505050905090565b61087161086a610cd1565b838361115d565b5050565b610886610880610cd1565b83610d92565b6108c5576040517f08c379a00000000000000000000000000000000000000000000000000000000081526004016108bc906122ab565b60405180910390fd5b6108d1848484846112c9565b50505050565b6000426007600084815260200190815260200160002060000160149054906101000a900467ffffffffffffffff1667ffffffffffffffff1610610952576007600083815260200190815260200160002060000160009054906101000a900473ffffffffffffffffffffffffffffffffffffffff169050610957565b600090505b919050565b606061096782610c86565b6000600660008481526020019081526020016000208054610987906120e4565b80601f01602080910402602001604051908101604052809291908181526020018280546109b3906120e4565b8015610a005780601f106109d557610100808354040283529160200191610a00565b820191906000526020600020905b8154815290600101906020018083116109e357829003601f168201915b505050505090506000610a11611325565b90506000815103610a26578192505050610a69565b600082511115610a5b578082604051602001610a43929190612405565b60405160208183030381529060405292505050610a69565b610a648461133c565b925050505b919050565b610a783384610d92565b610ab7576040517f08c379a0000000000000000000000000000000000000000000000000000000008152600401610aae9061249b565b60405180910390fd5b6000600760008581526020019081526020016000209050828160000160006101000a81548173ffffffffffffffffffffffffffffffffffffffff021916908373ffffffffffffffffffffffffffffffffffffffff160217905550818160000160146101000a81548167ffffffffffffffff021916908367ffffffffffffffff1602179055508273ffffffffffffffffffffffffffffffffffffffff16847f4e06b4e7000e659094299b3533b47b6aa8ad048e95e872d23d1f4ee55af89cfe84604051610b8391906124ca565b60405180910390a350505050565b6000600560008473ffffffffffffffffffffffffffffffffffffffff1673ffffffffffffffffffffffffffffffffffffffff16815260200190815260200160002060008373ffffffffffffffffffffffffffffffffffffffff1673ffffffffffffffffffffffffffffffffffffffff16815260200190815260200160002060009054906101000a900460ff16905092915050565b6000634906490660e01b7bffffffffffffffffffffffffffffffffffffffffffffffffffffffff1916827bffffffffffffffffffffffffffffffffffffffffffffffffffffffff19161480610c7f5750610c7e826113a4565b5b9050919050565b610c8f81611486565b610cce576040517f08c379a0000000000000000000000000000000000000000000000000000000008152600401610cc590612317565b60405180910390fd5b50565b600033905090565b816004600083815260200190815260200160002060006101000a81548173ffffffffffffffffffffffffffffffffffffffff021916908373ffffffffffffffffffffffffffffffffffffffff160217905550808273ffffffffffffffffffffffffffffffffffffffff16610d4c83610652565b73ffffffffffffffffffffffffffffffffffffffff167f8c5be1e5ebec7d5bd14f71427d1e84f3dd0314c0f7b2291e5b200ac8c7c3b92560405160405180910390a45050565b600080610d9e83610652565b90508073ffffffffffffffffffffffffffffffffffffffff168473ffffffffffffffffffffffffffffffffffffffff161480610de05750610ddf8185610b91565b5b80610e1e57508373ffffffffffffffffffffffffffffffffffffffff16610e0684610475565b73ffffffffffffffffffffffffffffffffffffffff16145b91505092915050565b8273ffffffffffffffffffffffffffffffffffffffff16610e4782610652565b73ffffffffffffffffffffffffffffffffffffffff1614610e9d576040517f08c379a0000000000000000000000000000000000000000000000000000000008152600401610e9490612557565b60405180910390fd5b600073ffffffffffffffffffffffffffffffffffffffff168273ffffffffffffffffffffffffffffffffffffffff1603610f0c576040517f08c379a0000000000000000000000000000000000000000000000000000000008152600401610f03906125e9565b60405180910390fd5b610f1983838360016114c7565b8273ffffffffffffffffffffffffffffffffffffffff16610f3982610652565b73ffffffffffffffffffffffffffffffffffffffff1614610f8f576040517f08c379a0000000000000000000000000000000000000000000000000000000008152600401610f8690612557565b60405180910390fd5b6004600082815260200190815260200160002060006101000a81549073ffffffffffffffffffffffffffffffffffffffff02191690556001600360008573ffffffffffffffffffffffffffffffffffffffff1673ffffffffffffffffffffffffffffffffffffffff168152602001908152602001600020600082825403925050819055506001600360008473ffffffffffffffffffffffffffffffffffffffff1673ffffffffffffffffffffffffffffffffffffffff16815260200190815260200160002060008282540192505081905550816002600083815260200190815260200160002060006101000a81548173ffffffffffffffffffffffffffffffffffffffff021916908373ffffffffffffffffffffffffffffffffffffffff160217905550808273ffffffffffffffffffffffffffffffffffffffff168473ffffffffffffffffffffffffffffffffffffffff167fddf252ad1be2c89b69c2b068fc378daa952ba7f163c4a11628f55a4df523b3ef60405160405180910390a461111b8383836001611627565b505050565b60006002600083815260200190815260200160002060009054906101000a900473ffffffffffffffffffffffffffffffffffffffff169050919050565b8173ffffffffffffffffffffffffffffffffffffffff168373ffffffffffffffffffffffffffffffffffffffff16036111cb576040517f08c379a00000000000000000000000000000000000000000000000000000000081526004016111c290612655565b60405180910390fd5b80600560008573ffffffffffffffffffffffffffffffffffffffff1673ffffffffffffffffffffffffffffffffffffffff16815260200190815260200160002060008473ffffffffffffffffffffffffffffffffffffffff1673ffffffffffffffffffffffffffffffffffffffff16815260200190815260200160002060006101000a81548160ff0219169083151502179055508173ffffffffffffffffffffffffffffffffffffffff168373ffffffffffffffffffffffffffffffffffffffff167f17307eab39ab6107e8899845ad3d59bd9653f200f220920489ca2b5937696c31836040516112bc9190611b1c565b60405180910390a3505050565b6112d4848484610e27565b6112e08484848461162d565b61131f576040517f08c379a0000000000000000000000000000000000000000000000000000000008152600401611316906126e7565b60405180910390fd5b50505050565b606060405180602001604052806000815250905090565b606061134782610c86565b6000611351611325565b90506000815111611371576040518060200160405280600081525061139c565b8061137b846117b4565b60405160200161138c929190612405565b6040516020818303038152906040525b915050919050565b60007f80ac58cd000000000000000000000000000000000000000000000000000000007bffffffffffffffffffffffffffffffffffffffffffffffffffffffff1916827bffffffffffffffffffffffffffffffffffffffffffffffffffffffff1916148061146f57507f5b5e139f000000000000000000000000000000000000000000000000000000007bffffffffffffffffffffffffffffffffffffffffffffffffffffffff1916827bffffffffffffffffffffffffffffffffffffffffffffffffffffffff1916145b8061147f575061147e82611882565b5b9050919050565b60008073ffffffffffffffffffffffffffffffffffffffff166114a883611120565b73ffffffffffffffffffffffffffffffffffffffff1614159050919050565b6114d3848484846118ec565b8273ffffffffffffffffffffffffffffffffffffffff168473ffffffffffffffffffffffffffffffffffffffff16141580156115725750600073ffffffffffffffffffffffffffffffffffffffff166007600084815260200190815260200160002060000160009054906101000a900473ffffffffffffffffffffffffffffffffffffffff1673ffffffffffffffffffffffffffffffffffffffff1614155b156116215760076000838152602001908152602001600020600080820160006101000a81549073ffffffffffffffffffffffffffffffffffffffff02191690556000820160146101000a81549067ffffffffffffffff02191690555050600073ffffffffffffffffffffffffffffffffffffffff16827f4e06b4e7000e659094299b3533b47b6aa8ad048e95e872d23d1f4ee55af89cfe6000604051611618919061274c565b60405180910390a35b50505050565b50505050565b600061164e8473ffffffffffffffffffffffffffffffffffffffff166118f2565b156117a7578373ffffffffffffffffffffffffffffffffffffffff1663150b7a02611677610cd1565b8786866040518563ffffffff1660e01b815260040161169994939291906127bc565b6020604051808303816000875af19250505080156116d557506040513d601f19601f820116820180604052508101906116d2919061281d565b60015b611757573d8060008114611705576040519150601f19603f3d011682016040523d82523d6000602084013e61170a565b606091505b50600081510361174f576040517f08c379a0000000000000000000000000000000000000000000000000000000008152600401611746906126e7565b60405180910390fd5b805181602001fd5b63150b7a0260e01b7bffffffffffffffffffffffffffffffffffffffffffffffffffffffff1916817bffffffffffffffffffffffffffffffffffffffffffffffffffffffff1916149150506117ac565b600190505b949350505050565b6060600060016117c384611915565b01905060008167ffffffffffffffff8111156117e2576117e1611e34565b5b6040519080825280601f01601f1916602001820160405280156118145781602001600182028036833780820191505090505b509050600082602001820190505b600115611877578080600190039150507f3031323334353637383961626364656600000000000000000000000000000000600a86061a8153600a858161186b5761186a61284a565b5b04945060008503611822575b819350505050919050565b60007f01ffc9a7000000000000000000000000000000000000000000000000000000007bffffffffffffffffffffffffffffffffffffffffffffffffffffffff1916827bffffffffffffffffffffffffffffffffffffffffffffffffffffffff1916149050919050565b50505050565b6000808273ffffffffffffffffffffffffffffffffffffffff163b119050919050565b600080600090507a184f03e93ff9f4daa797ed6e38ed64bf6a1f0100000000000000008310611973577a184f03e93ff9f4daa797ed6e38ed64bf6a1f01000000000000000083816119695761196861284a565b5b0492506040810190505b6d04ee2d6d415b85acef810000000083106119b0576d04ee2d6d415b85acef810000000083816119a6576119a561284a565b5b0492506020810190505b662386f26fc1000083106119df57662386f26fc1000083816119d5576119d461284a565b5b0492506010810190505b6305f5e1008310611a08576305f5e10083816119fe576119fd61284a565b5b0492506008810190505b6127108310611a2d576127108381611a2357611a2261284a565b5b0492506004810190505b60648310611a505760648381611a4657611a4561284a565b5b0492506002810190505b600a8310611a5f576001810190505b80915050919050565b6000604051905090565b600080fd5b600080fd5b60007fffffffff0000000000000000000000000000000000000000000000000000000082169050919050565b611ab181611a7c565b8114611abc57600080fd5b50565b600081359050611ace81611aa8565b92915050565b600060208284031215611aea57611ae9611a72565b5b6000611af884828501611abf565b91505092915050565b60008115159050919050565b611b1681611b01565b82525050565b6000602082019050611b316000830184611b0d565b92915050565b600081519050919050565b600082825260208201905092915050565b60005b83811015611b71578082015181840152602081019050611b56565b60008484015250505050565b6000601f19601f8301169050919050565b6000611b9982611b37565b611ba38185611b42565b9350611bb3818560208601611b53565b611bbc81611b7d565b840191505092915050565b60006020820190508181036000830152611be18184611b8e565b905092915050565b6000819050919050565b611bfc81611be9565b8114611c0757600080fd5b50565b600081359050611c1981611bf3565b92915050565b600060208284031215611c3557611c34611a72565b5b6000611c4384828501611c0a565b91505092915050565b600073ffffffffffffffffffffffffffffffffffffffff82169050919050565b6000611c7782611c4c565b9050919050565b611c8781611c6c565b82525050565b6000602082019050611ca26000830184611c7e565b92915050565b611cb181611c6c565b8114611cbc57600080fd5b50565b600081359050611cce81611ca8565b92915050565b60008060408385031215611ceb57611cea611a72565b5b6000611cf985828601611cbf565b9250506020611d0a85828601611c0a565b9150509250929050565b600080600060608486031215611d2d57611d2c611a72565b5b6000611d3b86828701611cbf565b9350506020611d4c86828701611cbf565b9250506040611d5d86828701611c0a565b9150509250925092565b600060208284031215611d7d57611d7c611a72565b5b6000611d8b84828501611cbf565b91505092915050565b611d9d81611be9565b82525050565b6000602082019050611db86000830184611d94565b92915050565b611dc781611b01565b8114611dd257600080fd5b50565b600081359050611de481611dbe565b92915050565b60008060408385031215611e0157611e00611a72565b5b6000611e0f85828601611cbf565b9250506020611e2085828601611dd5565b9150509250929050565b600080fd5b600080fd5b7f4e487b7100000000000000000000000000000000000000000000000000000000600052604160045260246000fd5b611e6c82611b7d565b810181811067ffffffffffffffff82111715611e8b57611e8a611e34565b5b80604052505050565b6000611e9e611a68565b9050611eaa8282611e63565b919050565b600067ffffffffffffffff821115611eca57611ec9611e34565b5b611ed382611b7d565b9050602081019050919050565b82818337600083830152505050565b6000611f02611efd84611eaf565b611e94565b905082815260208101848484011115611f1e57611f1d611e2f565b5b611f29848285611ee0565b509392505050565b600082601f830112611f4657611f45611e2a565b5b8135611f56848260208601611eef565b91505092915050565b60008060008060808587031215611f7957611f78611a72565b5b6000611f8787828801611cbf565b9450506020611f9887828801611cbf565b9350506040611fa987828801611c0a565b925050606085013567ffffffffffffffff811115611fca57611fc9611a77565b5b611fd687828801611f31565b91505092959194509250565b600067ffffffffffffffff82169050919050565b611fff81611fe2565b811461200a57600080fd5b50565b60008135905061201c81611ff6565b92915050565b60008060006060848603121561203b5761203a611a72565b5b600061204986828701611c0a565b935050602061205a86828701611cbf565b925050604061206b8682870161200d565b9150509250925092565b6000806040838503121561208c5761208b611a72565b5b600061209a85828601611cbf565b92505060206120ab85828601611cbf565b9150509250929050565b7f4e487b7100000000000000000000000000000000000000000000000000000000600052602260045260246000fd5b600060028204905060018216806120fc57607f821691505b60208210810361210f5761210e6120b5565b5b50919050565b7f4552433732313a20617070726f76616c20746f2063757272656e74206f776e6560008201527f7200000000000000000000000000000000000000000000000000000000000000602082015250565b6000612171602183611b42565b915061217c82612115565b604082019050919050565b600060208201905081810360008301526121a081612164565b9050919050565b7f4552433732313a20617070726f76652063616c6c6572206973206e6f7420746f60008201527f6b656e206f776e6572206f7220617070726f76656420666f7220616c6c000000602082015250565b6000612203603d83611b42565b915061220e826121a7565b604082019050919050565b60006020820190508181036000830152612232816121f6565b9050919050565b7f4552433732313a2063616c6c6572206973206e6f7420746f6b656e206f776e6560008201527f72206f7220617070726f76656400000000000000000000000000000000000000602082015250565b6000612295602d83611b42565b91506122a082612239565b604082019050919050565b600060208201905081810360008301526122c481612288565b9050919050565b7f4552433732313a20696e76616c696420746f6b656e2049440000000000000000600082015250565b6000612301601883611b42565b915061230c826122cb565b602082019050919050565b60006020820190508181036000830152612330816122f4565b9050919050565b7f4552433732313a2061646472657373207a65726f206973206e6f74206120766160008201527f6c6964206f776e65720000000000000000000000000000000000000000000000602082015250565b6000612393602983611b42565b915061239e82612337565b604082019050919050565b600060208201905081810360008301526123c281612386565b9050919050565b600081905092915050565b60006123df82611b37565b6123e981856123c9565b93506123f9818560208601611b53565b80840191505092915050565b600061241182856123d4565b915061241d82846123d4565b91508190509392505050565b7f4552433732313a207472616e736665722063616c6c6572206973206e6f74206f60008201527f776e6572206e6f7220617070726f766564000000000000000000000000000000602082015250565b6000612485603183611b42565b915061249082612429565b604082019050919050565b600060208201905081810360008301526124b481612478565b9050919050565b6124c481611fe2565b82525050565b60006020820190506124df60008301846124bb565b92915050565b7f4552433732313a207472616e736665722066726f6d20696e636f72726563742060008201527f6f776e6572000000000000000000000000000000000000000000000000000000602082015250565b6000612541602583611b42565b915061254c826124e5565b604082019050919050565b6000602082019050818103600083015261257081612534565b9050919050565b7f4552433732313a207472616e7366657220746f20746865207a65726f2061646460008201527f7265737300000000000000000000000000000000000000000000000000000000602082015250565b60006125d3602483611b42565b91506125de82612577565b604082019050919050565b60006020820190508181036000830152612602816125c6565b9050919050565b7f4552433732313a20617070726f766520746f2063616c6c657200000000000000600082015250565b600061263f601983611b42565b915061264a82612609565b602082019050919050565b6000602082019050818103600083015261266e81612632565b9050919050565b7f4552433732313a207472616e7366657220746f206e6f6e20455243373231526560008201527f63656976657220696d706c656d656e7465720000000000000000000000000000602082015250565b60006126d1603283611b42565b91506126dc82612675565b604082019050919050565b60006020820190508181036000830152612700816126c4565b9050919050565b6000819050919050565b6000819050919050565b600061273661273161272c84612707565b612711565b611fe2565b9050919050565b6127468161271b565b82525050565b6000602082019050612761600083018461273d565b92915050565b600081519050919050565b600082825260208201905092915050565b600061278e82612767565b6127988185612772565b93506127a8818560208601611b53565b6127b181611b7d565b840191505092915050565b60006080820190506127d16000830187611c7e565b6127de6020830186611c7e565b6127eb6040830185611d94565b81810360608301526127fd8184612783565b905095945050505050565b60008151905061281781611aa8565b92915050565b60006020828403121561283357612832611a72565b5b600061284184828501612808565b91505092915050565b7f4e487b7100000000000000000000000000000000000000000000000000000000600052601260045260246000fdfea264697066735822122015165c6df828c67ea9be2594717df615b41e18fa1e59513793785c02a1a01f8a64736f6c63430008130033",
  "linkReferences": {},
  "deployedLinkReferences": {}
}